{
  "_format": "hh-sol-artifact-1",
  "contractName": "HotsThots",
  "sourceName": "contracts/HotsThots.sol",
  "abi": [
    {
      "inputs": [
        {
          "internalType": "address[]",
          "name": "_whitelist",
          "type": "address[]"
        }
      ],
      "stateMutability": "nonpayable",
      "type": "constructor"
    },
    {
      "anonymous": false,
      "inputs": [
        {
          "indexed": true,
          "internalType": "address",
          "name": "owner",
          "type": "address"
        },
        {
          "indexed": true,
          "internalType": "address",
          "name": "spender",
          "type": "address"
        },
        {
          "indexed": true,
          "internalType": "uint256",
          "name": "id",
          "type": "uint256"
        }
      ],
      "name": "Approval",
      "type": "event"
    },
    {
      "anonymous": false,
      "inputs": [
        {
          "indexed": true,
          "internalType": "address",
          "name": "owner",
          "type": "address"
        },
        {
          "indexed": true,
          "internalType": "address",
          "name": "operator",
          "type": "address"
        },
        {
          "indexed": false,
          "internalType": "bool",
          "name": "approved",
          "type": "bool"
        }
      ],
      "name": "ApprovalForAll",
      "type": "event"
    },
    {
      "anonymous": false,
      "inputs": [
        {
          "indexed": true,
          "internalType": "address",
          "name": "user",
          "type": "address"
        },
        {
          "indexed": true,
          "internalType": "address",
          "name": "newOwner",
          "type": "address"
        }
      ],
      "name": "OwnerUpdated",
      "type": "event"
    },
    {
      "anonymous": false,
      "inputs": [
        {
          "indexed": true,
          "internalType": "address",
          "name": "from",
          "type": "address"
        },
        {
          "indexed": true,
          "internalType": "address",
          "name": "to",
          "type": "address"
        },
        {
          "indexed": true,
          "internalType": "uint256",
          "name": "id",
          "type": "uint256"
        }
      ],
      "name": "Transfer",
      "type": "event"
    },
    {
      "inputs": [
        {
          "internalType": "address",
          "name": "_newFren",
          "type": "address"
        }
      ],
      "name": "addFren",
      "outputs": [],
      "stateMutability": "nonpayable",
      "type": "function"
    },
    {
      "inputs": [
        {
          "internalType": "address",
          "name": "spender",
          "type": "address"
        },
        {
          "internalType": "uint256",
          "name": "id",
          "type": "uint256"
        }
      ],
      "name": "approve",
      "outputs": [],
      "stateMutability": "nonpayable",
      "type": "function"
    },
    {
      "inputs": [
        {
          "internalType": "address",
          "name": "owner",
          "type": "address"
        }
      ],
      "name": "balanceOf",
      "outputs": [
        {
          "internalType": "uint256",
          "name": "",
          "type": "uint256"
        }
      ],
      "stateMutability": "view",
      "type": "function"
    },
    {
      "inputs": [],
      "name": "baseURI",
      "outputs": [
        {
          "internalType": "string",
          "name": "",
          "type": "string"
        }
      ],
      "stateMutability": "view",
      "type": "function"
    },
    {
      "inputs": [
        {
          "internalType": "string",
          "name": "newURI",
          "type": "string"
        }
      ],
      "name": "changeTokenURI",
      "outputs": [],
      "stateMutability": "nonpayable",
      "type": "function"
    },
    {
      "inputs": [],
      "name": "claim",
      "outputs": [],
      "stateMutability": "nonpayable",
      "type": "function"
    },
    {
      "inputs": [],
      "name": "frensLength",
      "outputs": [
        {
          "internalType": "uint256",
          "name": "",
          "type": "uint256"
        }
      ],
      "stateMutability": "view",
      "type": "function"
    },
    {
      "inputs": [
        {
          "internalType": "uint256",
          "name": "",
          "type": "uint256"
        }
      ],
      "name": "getApproved",
      "outputs": [
        {
          "internalType": "address",
          "name": "",
          "type": "address"
        }
      ],
      "stateMutability": "view",
      "type": "function"
    },
    {
      "inputs": [
        {
          "internalType": "uint256",
          "name": "",
          "type": "uint256"
        }
      ],
      "name": "hotsFrens",
      "outputs": [
        {
          "internalType": "address",
          "name": "",
          "type": "address"
        }
      ],
      "stateMutability": "view",
      "type": "function"
    },
    {
      "inputs": [
        {
          "internalType": "address",
          "name": "",
          "type": "address"
        },
        {
          "internalType": "address",
          "name": "",
          "type": "address"
        }
      ],
      "name": "isApprovedForAll",
      "outputs": [
        {
          "internalType": "bool",
          "name": "",
          "type": "bool"
        }
      ],
      "stateMutability": "view",
      "type": "function"
    },
    {
      "inputs": [],
      "name": "name",
      "outputs": [
        {
          "internalType": "string",
          "name": "",
          "type": "string"
        }
      ],
      "stateMutability": "view",
      "type": "function"
    },
    {
      "inputs": [],
      "name": "owner",
      "outputs": [
        {
          "internalType": "address",
          "name": "",
          "type": "address"
        }
      ],
      "stateMutability": "view",
      "type": "function"
    },
    {
      "inputs": [
        {
          "internalType": "uint256",
          "name": "id",
          "type": "uint256"
        }
      ],
      "name": "ownerOf",
      "outputs": [
        {
          "internalType": "address",
          "name": "owner",
          "type": "address"
        }
      ],
      "stateMutability": "view",
      "type": "function"
    },
    {
      "inputs": [
        {
          "internalType": "address",
          "name": "from",
          "type": "address"
        },
        {
          "internalType": "address",
          "name": "to",
          "type": "address"
        },
        {
          "internalType": "uint256",
          "name": "id",
          "type": "uint256"
        }
      ],
      "name": "safeTransferFrom",
      "outputs": [],
      "stateMutability": "nonpayable",
      "type": "function"
    },
    {
      "inputs": [
        {
          "internalType": "address",
          "name": "from",
          "type": "address"
        },
        {
          "internalType": "address",
          "name": "to",
          "type": "address"
        },
        {
          "internalType": "uint256",
          "name": "id",
          "type": "uint256"
        },
        {
          "internalType": "bytes",
          "name": "data",
          "type": "bytes"
        }
      ],
      "name": "safeTransferFrom",
      "outputs": [],
      "stateMutability": "nonpayable",
      "type": "function"
    },
    {
      "inputs": [
        {
          "internalType": "address",
          "name": "operator",
          "type": "address"
        },
        {
          "internalType": "bool",
          "name": "approved",
          "type": "bool"
        }
      ],
      "name": "setApprovalForAll",
      "outputs": [],
      "stateMutability": "nonpayable",
      "type": "function"
    },
    {
      "inputs": [
        {
          "internalType": "address",
          "name": "newOwner",
          "type": "address"
        }
      ],
      "name": "setOwner",
      "outputs": [],
      "stateMutability": "nonpayable",
      "type": "function"
    },
    {
      "inputs": [
        {
          "internalType": "bytes4",
          "name": "interfaceId",
          "type": "bytes4"
        }
      ],
      "name": "supportsInterface",
      "outputs": [
        {
          "internalType": "bool",
          "name": "",
          "type": "bool"
        }
      ],
      "stateMutability": "view",
      "type": "function"
    },
    {
      "inputs": [],
      "name": "symbol",
      "outputs": [
        {
          "internalType": "string",
          "name": "",
          "type": "string"
        }
      ],
      "stateMutability": "view",
      "type": "function"
    },
    {
      "inputs": [
        {
          "internalType": "uint256",
          "name": "id",
          "type": "uint256"
        }
      ],
      "name": "tokenURI",
      "outputs": [
        {
          "internalType": "string",
          "name": "",
          "type": "string"
        }
      ],
      "stateMutability": "view",
      "type": "function"
    },
    {
      "inputs": [
        {
          "internalType": "address",
          "name": "from",
          "type": "address"
        },
        {
          "internalType": "address",
          "name": "to",
          "type": "address"
        },
        {
          "internalType": "uint256",
          "name": "id",
          "type": "uint256"
        }
      ],
      "name": "transferFrom",
      "outputs": [],
      "stateMutability": "nonpayable",
      "type": "function"
    }
  ],
  "bytecode": "0x60806040523480156200001157600080fd5b50604051620019b6380380620019b6833981016040819052620000349162000408565b6040805180820182526009815268486f747354686f747360b81b602080830191825283518085019094526004845263484f545360e01b908401528151339391620000829160009190620002f2565b50805162000098906001906020840190620002f2565b5050600680546001600160a01b0319166001600160a01b0384169081179091556040519091506000907f8292fce18fa69edf4db7b94ea2e58241df0ae57f97e0a6c9b29067028bf92d76908290a350620001166040518060600160405280603b815260200162001938603b91396200019d60201b62000bb41760201c565b80516200012b90600990602084019062000381565b50604051806080016040528060438152602001620019736043913980516200015c91600891602090910190620002f2565b506200017f33620001796007620001eb60201b62000bfa1760201c565b620001f3565b620001966007620002c860201b62000bfe1760201c565b50620005d2565b620001e881604051602401620001b49190620004d6565b60408051601f198184030181529190526020810180516001600160e01b0390811663104c13eb60e21b17909152620002d116565b50565b80545b919050565b6001600160a01b038216620002255760405162461bcd60e51b81526004016200021c906200052c565b60405180910390fd5b6000818152600260205260409020546001600160a01b0316156200025d5760405162461bcd60e51b81526004016200021c9062000557565b6001600160a01b038216600081815260036020908152604080832080546001019055848352600290915280822080546001600160a01b0319168417905551839291907fddf252ad1be2c89b69c2b068fc378daa952ba7f163c4a11628f55a4df523b3ef908290a45050565b80546001019055565b80516a636f6e736f6c652e6c6f67602083016000808483855afa5050505050565b82805462000300906200057f565b90600052602060002090601f0160209004810192826200032457600085556200036f565b82601f106200033f57805160ff19168380011785556200036f565b828001600101855582156200036f579182015b828111156200036f57825182559160200191906001019062000352565b506200037d929150620003d9565b5090565b8280548282559060005260206000209081019282156200036f579160200282015b828111156200036f57825182546001600160a01b0319166001600160a01b03909116178255602090920191600190910190620003a2565b5b808211156200037d5760008155600101620003da565b80516001600160a01b0381168114620001ee57600080fd5b600060208083850312156200041b578182fd5b82516001600160401b038082111562000432578384fd5b818501915085601f83011262000446578384fd5b8151818111156200045b576200045b620005bc565b838102604051858282010181811085821117156200047d576200047d620005bc565b604052828152858101935084860182860187018a10156200049c578788fd5b8795505b83861015620004c957620004b481620003f0565b855260019590950194938601938601620004a0565b5098975050505050505050565b6000602080835283518082850152825b818110156200050457858101830151858201604001528201620004e6565b81811115620005165783604083870101525b50601f01601f1916929092016040019392505050565b6020808252601190820152701253959053125117d49150d25412515395607a1b604082015260600190565b6020808252600e908201526d1053149150511657d3525395115160921b604082015260600190565b6002810460018216806200059457607f821691505b60208210811415620005b657634e487b7160e01b600052602260045260246000fd5b50919050565b634e487b7160e01b600052604160045260246000fd5b61135680620005e26000396000f3fe608060405234801561001057600080fd5b50600436106101375760003560e01c80636c0360eb116100b8578063a22cb4651161007c578063a22cb46514610256578063b88d4fde14610269578063ba53fb7c1461027c578063c87b56dd1461028f578063d5c7265c146102a2578063e985e9c5146102b557610137565b80636c0360eb1461021857806370a08231146102205780637d7b17a1146102335780638da5cb5b1461024657806395d89b411461024e57610137565b80631c4be5ee116100ff5780631c4be5ee146101c257806323b872dd146101d757806342842e0e146101ea5780634e71d92d146101fd5780636352211e1461020557610137565b806301ffc9a71461013c57806306fdde0314610165578063081812fc1461017a578063095ea7b31461019a57806313af4035146101af575b600080fd5b61014f61014a366004610f43565b6102c8565b60405161015c919061106b565b60405180910390f35b61016d61031c565b60405161015c9190611076565b61018d610188366004610fbb565b6103aa565b60405161015c9190610fd3565b6101ad6101a8366004610f1a565b6103c5565b005b6101ad6101bd366004610de5565b61048f565b6101ca610505565b60405161015c919061129f565b6101ad6101e5366004610e38565b61050b565b6101ad6101f8366004610e38565b610670565b6101ad61075a565b61018d610213366004610fbb565b610823565b61016d610858565b6101ca61022e366004610de5565b610865565b6101ad610241366004610f7b565b6108a9565b61018d6108df565b61016d6108ee565b6101ad610264366004610ee0565b6108fb565b6101ad610277366004610e73565b61096a565b61018d61028a366004610fbb565b610a5a565b61016d61029d366004610fbb565b610a84565b6101ad6102b0366004610de5565b610b18565b61014f6102c3366004610e06565b610b94565b60006301ffc9a760e01b6001600160e01b0319831614806102f957506380ac58cd60e01b6001600160e01b03198316145b806103145750635b5e139f60e01b6001600160e01b03198316145b90505b919050565b60008054610329906112a8565b80601f0160208091040260200160405190810160405280929190818152602001828054610355906112a8565b80156103a25780601f10610377576101008083540402835291602001916103a2565b820191906000526020600020905b81548152906001019060200180831161038557829003601f168201915b505050505081565b6004602052600090815260409020546001600160a01b031681565b6000818152600260205260409020546001600160a01b03163381148061040e57506001600160a01b038116600090815260056020908152604080832033845290915290205460ff165b6104335760405162461bcd60e51b815260040161042a9061122f565b60405180910390fd5b60008281526004602052604080822080546001600160a01b0319166001600160a01b0387811691821790925591518593918516917f8c5be1e5ebec7d5bd14f71427d1e84f3dd0314c0f7b2291e5b200ac8c7c3b92591a4505050565b6006546001600160a01b031633146104b95760405162461bcd60e51b815260040161042a906110c9565b600680546001600160a01b0319166001600160a01b03831690811790915560405133907f8292fce18fa69edf4db7b94ea2e58241df0ae57f97e0a6c9b29067028bf92d7690600090a350565b60095490565b6000818152600260205260409020546001600160a01b038481169116146105445760405162461bcd60e51b815260040161042a9061127b565b6001600160a01b03821661056a5760405162461bcd60e51b815260040161042a906110ef565b336001600160a01b03841614806105a457506001600160a01b038316600090815260056020908152604080832033845290915290205460ff165b806105c557506000818152600460205260409020546001600160a01b031633145b6105e15760405162461bcd60e51b815260040161042a9061122f565b6001600160a01b0380841660008181526003602090815260408083208054600019019055938616808352848320805460010190558583526002825284832080546001600160a01b03199081168317909155600490925284832080549092169091559251849392917fddf252ad1be2c89b69c2b068fc378daa952ba7f163c4a11628f55a4df523b3ef91a4505050565b61067b83838361050b565b816001600160a01b0316803b806020016040519081016040528181526000908060200190933c5115806107395750604051630a85bd0160e11b808252906001600160a01b0384169063150b7a02906106db90339088908790600401611038565b602060405180830381600087803b1580156106f557600080fd5b505af1158015610709573d6000803e3d6000fd5b505050506040513d601f19601f8201168201806040525081019061072d9190610f5f565b6001600160e01b031916145b6107555760405162461bcd60e51b815260040161042a90611140565b505050565b61076333610865565b156107805760405162461bcd60e51b815260040161042a9061116a565b60005b60095481101561080857336001600160a01b0316600982815481106107b857634e487b7160e01b600052603260045260246000fd5b6000918252602090912001546001600160a01b031614156107f6576107e6336107e16007610bfa565b610c07565b6107f06007610bfe565b50610821565b80610800816112e3565b915050610783565b5060405162461bcd60e51b815260040161042a9061119f565b565b6000818152600260205260409020546001600160a01b0316806103175760405162461bcd60e51b815260040161042a90611257565b60088054610329906112a8565b60006001600160a01b03821661088d5760405162461bcd60e51b815260040161042a9061111a565b506001600160a01b031660009081526003602052604090205490565b6006546001600160a01b031633146108d35760405162461bcd60e51b815260040161042a906110c9565b61075560088383610cee565b6006546001600160a01b031681565b60018054610329906112a8565b3360008181526005602090815260408083206001600160a01b038716808552925291829020805460ff191685151517905590519091907f17307eab39ab6107e8899845ad3d59bd9653f200f220920489ca2b5937696c319061095e90859061106b565b60405180910390a35050565b61097585858561050b565b836001600160a01b0316803b806020016040519081016040528181526000908060200190933c511580610a375750604051630a85bd0160e11b808252906001600160a01b0386169063150b7a02906109d99033908a90899089908990600401610fe7565b602060405180830381600087803b1580156109f357600080fd5b505af1158015610a07573d6000803e3d6000fd5b505050506040513d601f19601f82011682018060405250810190610a2b9190610f5f565b6001600160e01b031916145b610a535760405162461bcd60e51b815260040161042a90611140565b5050505050565b60098181548110610a6a57600080fd5b6000918252602090912001546001600160a01b0316905081565b606060088054610a93906112a8565b80601f0160208091040260200160405190810160405280929190818152602001828054610abf906112a8565b8015610b0c5780601f10610ae157610100808354040283529160200191610b0c565b820191906000526020600020905b815481529060010190602001808311610aef57829003601f168201915b50505050509050919050565b6006546001600160a01b03163314610b425760405162461bcd60e51b815260040161042a906110c9565b600980546001810182556000919091527f6e1540171b6c0c960b71a7020d9f60077f6af931a8bbf590da0223dacf75c7af0180546001600160a01b0319166001600160a01b0392909216919091179055565b600560209081526000928352604080842090915290825290205460ff1681565b610bf781604051602401610bc89190611076565b60408051601f198184030181529190526020810180516001600160e01b031663104c13eb60e21b179052610ccd565b50565b5490565b80546001019055565b6001600160a01b038216610c2d5760405162461bcd60e51b815260040161042a906110ef565b6000818152600260205260409020546001600160a01b031615610c625760405162461bcd60e51b815260040161042a90611207565b6001600160a01b038216600081815260036020908152604080832080546001019055848352600290915280822080546001600160a01b0319168417905551839291907fddf252ad1be2c89b69c2b068fc378daa952ba7f163c4a11628f55a4df523b3ef908290a45050565b80516a636f6e736f6c652e6c6f67602083016000808483855afa5050505050565b828054610cfa906112a8565b90600052602060002090601f016020900481019282610d1c5760008555610d62565b82601f10610d355782800160ff19823516178555610d62565b82800160010185558215610d62579182015b82811115610d62578235825591602001919060010190610d47565b50610d6e929150610d72565b5090565b5b80821115610d6e5760008155600101610d73565b80356001600160a01b038116811461031757600080fd5b60008083601f840112610daf578182fd5b50813567ffffffffffffffff811115610dc6578182fd5b602083019150836020828501011115610dde57600080fd5b9250929050565b600060208284031215610df6578081fd5b610dff82610d87565b9392505050565b60008060408385031215610e18578081fd5b610e2183610d87565b9150610e2f60208401610d87565b90509250929050565b600080600060608486031215610e4c578081fd5b610e5584610d87565b9250610e6360208501610d87565b9150604084013590509250925092565b600080600080600060808688031215610e8a578081fd5b610e9386610d87565b9450610ea160208701610d87565b935060408601359250606086013567ffffffffffffffff811115610ec3578182fd5b610ecf88828901610d9e565b969995985093965092949392505050565b60008060408385031215610ef2578182fd5b610efb83610d87565b915060208301358015158114610f0f578182fd5b809150509250929050565b60008060408385031215610f2c578182fd5b610f3583610d87565b946020939093013593505050565b600060208284031215610f54578081fd5b8135610dff8161130a565b600060208284031215610f70578081fd5b8151610dff8161130a565b60008060208385031215610f8d578182fd5b823567ffffffffffffffff811115610fa3578283fd5b610faf85828601610d9e565b90969095509350505050565b600060208284031215610fcc578081fd5b5035919050565b6001600160a01b0391909116815260200190565b6001600160a01b038681168252851660208201526040810184905260806060820181905281018290526000828460a084013781830160a090810191909152601f909201601f19160101949350505050565b6001600160a01b039384168152919092166020820152604081019190915260806060820181905260009082015260a00190565b901515815260200190565b6000602080835283518082850152825b818110156110a257858101830151858201604001528201611086565b818111156110b35783604083870101525b50601f01601f1916929092016040019392505050565b6020808252600c908201526b15539055551213d49256915160a21b604082015260600190565b6020808252601190820152701253959053125117d49150d25412515395607a1b604082015260600190565b6020808252600c908201526b5a45524f5f4144445245535360a01b604082015260600190565b60208082526010908201526f155394d0519157d49150d2541251539560821b604082015260600190565b6020808252818101527f596f7520616c7265616479206f776e206120486f747354686f7473204e465421604082015260600190565b60208082526042908201527f596f75206d7573742062652077686974656c697374656420627920746865204b60408201527f7765656e4269726220526f6272696b7320696e206f7264657220746f20636c61606082015261696d60f01b608082015260a00190565b6020808252600e908201526d1053149150511657d3525395115160921b604082015260600190565b6020808252600e908201526d1393d517d055551213d49256915160921b604082015260600190565b6020808252600a90820152691393d517d3525395115160b21b604082015260600190565b6020808252600a908201526957524f4e475f46524f4d60b01b604082015260600190565b90815260200190565b6002810460018216806112bc57607f821691505b602082108114156112dd57634e487b7160e01b600052602260045260246000fd5b50919050565b600060001982141561130357634e487b7160e01b81526011600452602481fd5b5060010190565b6001600160e01b031981168114610bf757600080fdfea264697066735822122063011a92c821c59d51f5ad966a532fb22f66e85283646ab336b70fd23cc1764264736f6c634300080000334465706c6f79696e6720486f747354686f7473206d656d62657273686970204e465420746f2077686974656c69737465642061646472657373657368747470733a2f2f697066732e696f2f697066732f516d614b4675727054454b39394342645257554b6f7061574444717653395a636e423841726f4c6f746272727745",
  "linkReferences": {},
  "deployedLinkReferences": {}
}